{
  "_format": "hh-sol-artifact-1",
  "contractName": "WaterBroker",
  "sourceName": "contracts/WaterBroker.sol",
  "abi": [
    {
      "inputs": [],
      "stateMutability": "nonpayable",
      "type": "constructor"
    },
    {
      "anonymous": false,
      "inputs": [
        {
          "indexed": true,
          "internalType": "address",
          "name": "previousOwner",
          "type": "address"
        },
        {
          "indexed": true,
          "internalType": "address",
          "name": "newOwner",
          "type": "address"
        }
      ],
      "name": "OwnershipTransferred",
      "type": "event"
    },
    {
      "anonymous": false,
      "inputs": [
        {
          "indexed": true,
          "internalType": "bytes32",
          "name": "pumpId",
          "type": "bytes32"
        },
        {
          "indexed": false,
          "internalType": "uint256",
          "name": "liters",
          "type": "uint256"
        }
      ],
      "name": "PumpActivated",
      "type": "event"
    },
    {
      "anonymous": false,
      "inputs": [
        {
          "indexed": true,
          "internalType": "address",
          "name": "user",
          "type": "address"
        },
        {
          "indexed": false,
          "internalType": "uint256",
          "name": "credits",
          "type": "uint256"
        },
        {
          "indexed": false,
          "internalType": "bytes32",
          "name": "pumpId",
          "type": "bytes32"
        }
      ],
      "name": "WaterPurchased",
      "type": "event"
    },
    {
      "anonymous": false,
      "inputs": [
        {
          "indexed": true,
          "internalType": "address",
          "name": "owner",
          "type": "address"
        },
        {
          "indexed": false,
          "internalType": "uint256",
          "name": "amount",
          "type": "uint256"
        }
      ],
      "name": "Withdrawal",
      "type": "event"
    },
    {
      "inputs": [
        {
          "internalType": "bytes32",
          "name": "pumpId",
          "type": "bytes32"
        },
        {
          "internalType": "uint256",
          "name": "liters",
          "type": "uint256"
        }
      ],
      "name": "activatePump",
      "outputs": [],
      "stateMutability": "nonpayable",
      "type": "function"
    },
    {
      "inputs": [
        {
          "internalType": "bytes32",
          "name": "pumpId",
          "type": "bytes32"
        }
      ],
      "name": "buyWater",
      "outputs": [],
      "stateMutability": "payable",
      "type": "function"
    },
    {
      "inputs": [],
      "name": "creditPrice",
      "outputs": [
        {
          "internalType": "uint256",
          "name": "",
          "type": "uint256"
        }
      ],
      "stateMutability": "view",
      "type": "function"
    },
    {
      "inputs": [],
      "name": "owner",
      "outputs": [
        {
          "internalType": "address",
          "name": "",
          "type": "address"
        }
      ],
      "stateMutability": "view",
      "type": "function"
    },
    {
      "inputs": [
        {
          "internalType": "bytes32",
          "name": "",
          "type": "bytes32"
        }
      ],
      "name": "pumpActivations",
      "outputs": [
        {
          "internalType": "bool",
          "name": "",
          "type": "bool"
        }
      ],
      "stateMutability": "view",
      "type": "function"
    },
    {
      "inputs": [],
      "name": "renounceOwnership",
      "outputs": [],
      "stateMutability": "nonpayable",
      "type": "function"
    },
    {
      "inputs": [
        {
          "internalType": "uint256",
          "name": "_newPrice",
          "type": "uint256"
        }
      ],
      "name": "setCreditPrice",
      "outputs": [],
      "stateMutability": "nonpayable",
      "type": "function"
    },
    {
      "inputs": [
        {
          "internalType": "address",
          "name": "newOwner",
          "type": "address"
        }
      ],
      "name": "transferOwnership",
      "outputs": [],
      "stateMutability": "nonpayable",
      "type": "function"
    },
    {
      "inputs": [
        {
          "internalType": "address",
          "name": "",
          "type": "address"
        }
      ],
      "name": "waterCredits",
      "outputs": [
        {
          "internalType": "uint256",
          "name": "",
          "type": "uint256"
        }
      ],
      "stateMutability": "view",
      "type": "function"
    },
    {
      "inputs": [],
      "name": "withdraw",
      "outputs": [],
      "stateMutability": "nonpayable",
      "type": "function"
    }
  ],
  "bytecode": "0x608060405266038d7ea4c6800060045534801561001b57600080fd5b5061003861002d61004460201b60201c565b61004c60201b60201c565b60018081905550610110565b600033905090565b60008060009054906101000a900473ffffffffffffffffffffffffffffffffffffffff169050816000806101000a81548173ffffffffffffffffffffffffffffffffffffffff021916908373ffffffffffffffffffffffffffffffffffffffff1602179055508173ffffffffffffffffffffffffffffffffffffffff168173ffffffffffffffffffffffffffffffffffffffff167f8be0079c531659141344cd1fd0a4f28419497f9722a3daafe3b4186f6b6457e060405160405180910390a35050565b61123b8061011f6000396000f3fe6080604052600436106100915760003560e01c8063a3e9d2ec11610059578063a3e9d2ec14610148578063ad17a0b314610171578063ca6358cd1461019a578063f2fde38b146101c5578063fbbeefc9146101ee57610091565b80630121596e1461009657806335eb0a1e146100d35780633ccfd60b146100ef578063715018a6146101065780638da5cb5b1461011d575b600080fd5b3480156100a257600080fd5b506100bd60048036038101906100b89190610a22565b61022b565b6040516100ca9190610a68565b60405180910390f35b6100ed60048036038101906100e89190610ab9565b610243565b005b3480156100fb57600080fd5b50610104610479565b005b34801561011257600080fd5b5061011b6105ea565b005b34801561012957600080fd5b506101326105fe565b60405161013f9190610af5565b60405180910390f35b34801561015457600080fd5b5061016f600480360381019061016a9190610b3c565b610627565b005b34801561017d57600080fd5b5061019860048036038101906101939190610b7c565b61071f565b005b3480156101a657600080fd5b506101af610774565b6040516101bc9190610a68565b60405180910390f35b3480156101d157600080fd5b506101ec60048036038101906101e79190610a22565b61077a565b005b3480156101fa57600080fd5b5061021560048036038101906102109190610ab9565b6107fd565b6040516102229190610bc4565b60405180910390f35b60026020528060005260406000206000915090505481565b61024b61081d565b600454341015610290576040517f08c379a000000000000000000000000000000000000000000000000000000000815260040161028790610c3c565b60405180910390fd5b6000801b81036102d5576040517f08c379a00000000000000000000000000000000000000000000000000000000081526004016102cc90610ca8565b60405180910390fd5b6000600454346102e59190610d26565b90506000600454826102f79190610d57565b9050600081346103079190610d99565b905082600260003373ffffffffffffffffffffffffffffffffffffffff1673ffffffffffffffffffffffffffffffffffffffff16815260200190815260200160002060008282546103589190610dcd565b925050819055503373ffffffffffffffffffffffffffffffffffffffff167f67c714528d39c0fa382d65c67187fe65995376245468856e215c0410bee2ec2584866040516103a7929190610e10565b60405180910390a2600081111561046b5760003373ffffffffffffffffffffffffffffffffffffffff16826108fc906040516103e290610e6a565b600060405180830381858888f193505050503d8060008114610420576040519150601f19603f3d011682016040523d82523d6000602084013e610425565b606091505b5050905080610469576040517f08c379a000000000000000000000000000000000000000000000000000000000815260040161046090610ecb565b60405180910390fd5b505b50505061047661086c565b50565b610481610875565b61048961081d565b6000479050600081116104d1576040517f08c379a00000000000000000000000000000000000000000000000000000000081526004016104c890610f37565b60405180910390fd5b60006104db6105fe565b73ffffffffffffffffffffffffffffffffffffffff16826108fc9060405161050290610e6a565b600060405180830381858888f193505050503d8060008114610540576040519150601f19603f3d011682016040523d82523d6000602084013e610545565b606091505b5050905080610589576040517f08c379a000000000000000000000000000000000000000000000000000000000815260040161058090610fa3565b60405180910390fd5b6105916105fe565b73ffffffffffffffffffffffffffffffffffffffff167f7fcf532c15f0a6db0bd6d0e038bea71d30d808c7d98cb3bf7268a95bf5081b65836040516105d69190610a68565b60405180910390a250506105e861086c565b565b6105f2610875565b6105fc60006108f3565b565b60008060009054906101000a900473ffffffffffffffffffffffffffffffffffffffff16905090565b61062f610875565b6000801b8203610674576040517f08c379a000000000000000000000000000000000000000000000000000000000815260040161066b90610ca8565b60405180910390fd5b600081116106b7576040517f08c379a00000000000000000000000000000000000000000000000000000000081526004016106ae9061100f565b60405180910390fd5b60016003600084815260200190815260200160002060006101000a81548160ff021916908315150217905550817fa32a3b55358cf1207d18132c3a7e2b40e61a33c5df83750c3b0ca61c6a403871826040516107139190610a68565b60405180910390a25050565b610727610875565b6000811161076a576040517f08c379a00000000000000000000000000000000000000000000000000000000081526004016107619061107b565b60405180910390fd5b8060048190555050565b60045481565b610782610875565b600073ffffffffffffffffffffffffffffffffffffffff168173ffffffffffffffffffffffffffffffffffffffff16036107f1576040517f08c379a00000000000000000000000000000000000000000000000000000000081526004016107e89061110d565b60405180910390fd5b6107fa816108f3565b50565b60036020528060005260406000206000915054906101000a900460ff1681565b600260015403610862576040517f08c379a000000000000000000000000000000000000000000000000000000000815260040161085990611179565b60405180910390fd5b6002600181905550565b60018081905550565b61087d6109b7565b73ffffffffffffffffffffffffffffffffffffffff1661089b6105fe565b73ffffffffffffffffffffffffffffffffffffffff16146108f1576040517f08c379a00000000000000000000000000000000000000000000000000000000081526004016108e8906111e5565b60405180910390fd5b565b60008060009054906101000a900473ffffffffffffffffffffffffffffffffffffffff169050816000806101000a81548173ffffffffffffffffffffffffffffffffffffffff021916908373ffffffffffffffffffffffffffffffffffffffff1602179055508173ffffffffffffffffffffffffffffffffffffffff168173ffffffffffffffffffffffffffffffffffffffff167f8be0079c531659141344cd1fd0a4f28419497f9722a3daafe3b4186f6b6457e060405160405180910390a35050565b600033905090565b600080fd5b600073ffffffffffffffffffffffffffffffffffffffff82169050919050565b60006109ef826109c4565b9050919050565b6109ff816109e4565b8114610a0a57600080fd5b50565b600081359050610a1c816109f6565b92915050565b600060208284031215610a3857610a376109bf565b5b6000610a4684828501610a0d565b91505092915050565b6000819050919050565b610a6281610a4f565b82525050565b6000602082019050610a7d6000830184610a59565b92915050565b6000819050919050565b610a9681610a83565b8114610aa157600080fd5b50565b600081359050610ab381610a8d565b92915050565b600060208284031215610acf57610ace6109bf565b5b6000610add84828501610aa4565b91505092915050565b610aef816109e4565b82525050565b6000602082019050610b0a6000830184610ae6565b92915050565b610b1981610a4f565b8114610b2457600080fd5b50565b600081359050610b3681610b10565b92915050565b60008060408385031215610b5357610b526109bf565b5b6000610b6185828601610aa4565b9250506020610b7285828601610b27565b9150509250929050565b600060208284031215610b9257610b916109bf565b5b6000610ba084828501610b27565b91505092915050565b60008115159050919050565b610bbe81610ba9565b82525050565b6000602082019050610bd96000830184610bb5565b92915050565b600082825260208201905092915050565b7f496e73756666696369656e74207061796d656e74000000000000000000000000600082015250565b6000610c26601483610bdf565b9150610c3182610bf0565b602082019050919050565b60006020820190508181036000830152610c5581610c19565b9050919050565b7f496e76616c69642070756d702049440000000000000000000000000000000000600082015250565b6000610c92600f83610bdf565b9150610c9d82610c5c565b602082019050919050565b60006020820190508181036000830152610cc181610c85565b9050919050565b7f4e487b7100000000000000000000000000000000000000000000000000000000600052601260045260246000fd5b7f4e487b7100000000000000000000000000000000000000000000000000000000600052601160045260246000fd5b6000610d3182610a4f565b9150610d3c83610a4f565b925082610d4c57610d4b610cc8565b5b828204905092915050565b6000610d6282610a4f565b9150610d6d83610a4f565b9250828202610d7b81610a4f565b91508282048414831517610d9257610d91610cf7565b5b5092915050565b6000610da482610a4f565b9150610daf83610a4f565b9250828203905081811115610dc757610dc6610cf7565b5b92915050565b6000610dd882610a4f565b9150610de383610a4f565b9250828201905080821115610dfb57610dfa610cf7565b5b92915050565b610e0a81610a83565b82525050565b6000604082019050610e256000830185610a59565b610e326020830184610e01565b9392505050565b600081905092915050565b50565b6000610e54600083610e39565b9150610e5f82610e44565b600082019050919050565b6000610e7582610e47565b9150819050919050565b7f526566756e64206661696c656400000000000000000000000000000000000000600082015250565b6000610eb5600d83610bdf565b9150610ec082610e7f565b602082019050919050565b60006020820190508181036000830152610ee481610ea8565b9050919050565b7f4e6f2066756e647320746f207769746864726177000000000000000000000000600082015250565b6000610f21601483610bdf565b9150610f2c82610eeb565b602082019050919050565b60006020820190508181036000830152610f5081610f14565b9050919050565b7f5769746864726177616c206661696c6564000000000000000000000000000000600082015250565b6000610f8d601183610bdf565b9150610f9882610f57565b602082019050919050565b60006020820190508181036000830152610fbc81610f80565b9050919050565b7f4c6974657273206d7573742062652067726561746572207468616e2030000000600082015250565b6000610ff9601d83610bdf565b915061100482610fc3565b602082019050919050565b6000602082019050818103600083015261102881610fec565b9050919050565b7f5072696365206d7573742062652067726561746572207468616e203000000000600082015250565b6000611065601c83610bdf565b91506110708261102f565b602082019050919050565b6000602082019050818103600083015261109481611058565b9050919050565b7f4f776e61626c653a206e6577206f776e657220697320746865207a65726f206160008201527f6464726573730000000000000000000000000000000000000000000000000000602082015250565b60006110f7602683610bdf565b91506111028261109b565b604082019050919050565b60006020820190508181036000830152611126816110ea565b9050919050565b7f5265656e7472616e637947756172643a207265656e7472616e742063616c6c00600082015250565b6000611163601f83610bdf565b915061116e8261112d565b602082019050919050565b6000602082019050818103600083015261119281611156565b9050919050565b7f4f776e61626c653a2063616c6c6572206973206e6f7420746865206f776e6572600082015250565b60006111cf602083610bdf565b91506111da82611199565b602082019050919050565b600060208201905081810360008301526111fe816111c2565b905091905056fea264697066735822122045cd06d3a0b471f1738219496162af671215003a90d2c20a683f3f23c47096e864736f6c63430008130033",
  "linkReferences": {},
  "deployedLinkReferences": {}
}