{"contracts/WaterBroker.sol":{"WaterBroker":{"abi":[{"inputs":[],"stateMutability":"nonpayable","type":"constructor"},{"anonymous":false,"inputs":[{"indexed":true,"internalType":"address","name":"previousOwner","type":"address"},{"indexed":true,"internalType":"address","name":"newOwner","type":"address"}],"name":"OwnershipTransferred","type":"event"},{"anonymous":false,"inputs":[{"indexed":true,"internalType":"bytes32","name":"pumpId","type":"bytes32"},{"indexed":false,"internalType":"uint256","name":"liters","type":"uint256"}],"name":"PumpActivated","type":"event"},{"anonymous":false,"inputs":[{"indexed":true,"internalType":"address","name":"user","type":"address"},{"indexed":false,"internalType":"uint256","name":"credits","type":"uint256"},{"indexed":false,"internalType":"bytes32","name":"pumpId","type":"bytes32"}],"name":"WaterPurchased","type":"event"},{"anonymous":false,"inputs":[{"indexed":true,"internalType":"address","name":"owner","type":"address"},{"indexed":false,"internalType":"uint256","name":"amount","type":"uint256"}],"name":"Withdrawal","type":"event"},{"inputs":[{"internalType":"bytes32","name":"pumpId","type":"bytes32"},{"internalType":"uint256","name":"liters","type":"uint256"}],"name":"activatePump","outputs":[],"stateMutability":"nonpayable","type":"function"},{"inputs":[{"internalType":"bytes32","name":"pumpId","type":"bytes32"}],"name":"buyWater","outputs":[],"stateMutability":"payable","type":"function"},{"inputs":[],"name":"creditPrice","outputs":[{"internalType":"uint256","name":"","type":"uint256"}],"stateMutability":"view","type":"function"},{"inputs":[],"name":"owner","outputs":[{"internalType":"address","name":"","type":"address"}],"stateMutability":"view","type":"function"},{"inputs":[{"internalType":"bytes32","name":"","type":"bytes32"}],"name":"pumpActivations","outputs":[{"internalType":"bool","name":"","type":"bool"}],"stateMutability":"view","type":"function"},{"inputs":[],"name":"renounceOwnership","outputs":[],"stateMutability":"nonpayable","type":"function"},{"inputs":[{"internalType":"uint256","name":"_newPrice","type":"uint256"}],"name":"setCreditPrice","outputs":[],"stateMutability":"nonpayable","type":"function"},{"inputs":[{"internalType":"address","name":"newOwner","type":"address"}],"name":"transferOwnership","outputs":[],"stateMutability":"nonpayable","type":"function"},{"inputs":[{"internalType":"address","name":"","type":"address"}],"name":"waterCredits","outputs":[{"internalType":"uint256","name":"","type":"uint256"}],"stateMutability":"view","type":"function"},{"inputs":[],"name":"withdraw","outputs":[],"stateMutability":"nonpayable","type":"function"}],"evm":{"bytecode":{"linkReferences":{},"object":"608060405266038d7ea4c6800060045534801561001b57600080fd5b5061003861002d61004460201b60201c565b61004c60201b60201c565b60018081905550610110565b600033905090565b60008060009054906101000a900473ffffffffffffffffffffffffffffffffffffffff169050816000806101000a81548173ffffffffffffffffffffffffffffffffffffffff021916908373ffffffffffffffffffffffffffffffffffffffff1602179055508173ffffffffffffffffffffffffffffffffffffffff168173ffffffffffffffffffffffffffffffffffffffff167f8be0079c531659141344cd1fd0a4f28419497f9722a3daafe3b4186f6b6457e060405160405180910390a35050565b61123b8061011f6000396000f3fe6080604052600436106100915760003560e01c8063a3e9d2ec11610059578063a3e9d2ec14610148578063ad17a0b314610171578063ca6358cd1461019a578063f2fde38b146101c5578063fbbeefc9146101ee57610091565b80630121596e1461009657806335eb0a1e146100d35780633ccfd60b146100ef578063715018a6146101065780638da5cb5b1461011d575b600080fd5b3480156100a257600080fd5b506100bd60048036038101906100b89190610a22565b61022b565b6040516100ca9190610a68565b60405180910390f35b6100ed60048036038101906100e89190610ab9565b610243565b005b3480156100fb57600080fd5b50610104610479565b005b34801561011257600080fd5b5061011b6105ea565b005b34801561012957600080fd5b506101326105fe565b60405161013f9190610af5565b60405180910390f35b34801561015457600080fd5b5061016f600480360381019061016a9190610b3c565b610627565b005b34801561017d57600080fd5b5061019860048036038101906101939190610b7c565b61071f565b005b3480156101a657600080fd5b506101af610774565b6040516101bc9190610a68565b60405180910390f35b3480156101d157600080fd5b506101ec60048036038101906101e79190610a22565b61077a565b005b3480156101fa57600080fd5b5061021560048036038101906102109190610ab9565b6107fd565b6040516102229190610bc4565b60405180910390f35b60026020528060005260406000206000915090505481565b61024b61081d565b600454341015610290576040517f08c379a000000000000000000000000000000000000000000000000000000000815260040161028790610c3c565b60405180910390fd5b6000801b81036102d5576040517f08c379a00000000000000000000000000000000000000000000000000000000081526004016102cc90610ca8565b60405180910390fd5b6000600454346102e59190610d26565b90506000600454826102f79190610d57565b9050600081346103079190610d99565b905082600260003373ffffffffffffffffffffffffffffffffffffffff1673ffffffffffffffffffffffffffffffffffffffff16815260200190815260200160002060008282546103589190610dcd565b925050819055503373ffffffffffffffffffffffffffffffffffffffff167f67c714528d39c0fa382d65c67187fe65995376245468856e215c0410bee2ec2584866040516103a7929190610e10565b60405180910390a2600081111561046b5760003373ffffffffffffffffffffffffffffffffffffffff16826108fc906040516103e290610e6a565b600060405180830381858888f193505050503d8060008114610420576040519150601f19603f3d011682016040523d82523d6000602084013e610425565b606091505b5050905080610469576040517f08c379a000000000000000000000000000000000000000000000000000000000815260040161046090610ecb565b60405180910390fd5b505b50505061047661086c565b50565b610481610875565b61048961081d565b6000479050600081116104d1576040517f08c379a00000000000000000000000000000000000000000000000000000000081526004016104c890610f37565b60405180910390fd5b60006104db6105fe565b73ffffffffffffffffffffffffffffffffffffffff16826108fc9060405161050290610e6a565b600060405180830381858888f193505050503d8060008114610540576040519150601f19603f3d011682016040523d82523d6000602084013e610545565b606091505b5050905080610589576040517f08c379a000000000000000000000000000000000000000000000000000000000815260040161058090610fa3565b60405180910390fd5b6105916105fe565b73ffffffffffffffffffffffffffffffffffffffff167f7fcf532c15f0a6db0bd6d0e038bea71d30d808c7d98cb3bf7268a95bf5081b65836040516105d69190610a68565b60405180910390a250506105e861086c565b565b6105f2610875565b6105fc60006108f3565b565b60008060009054906101000a900473ffffffffffffffffffffffffffffffffffffffff16905090565b61062f610875565b6000801b8203610674576040517f08c379a000000000000000000000000000000000000000000000000000000000815260040161066b90610ca8565b60405180910390fd5b600081116106b7576040517f08c379a00000000000000000000000000000000000000000000000000000000081526004016106ae9061100f565b60405180910390fd5b60016003600084815260200190815260200160002060006101000a81548160ff021916908315150217905550817fa32a3b55358cf1207d18132c3a7e2b40e61a33c5df83750c3b0ca61c6a403871826040516107139190610a68565b60405180910390a25050565b610727610875565b6000811161076a576040517f08c379a00000000000000000000000000000000000000000000000000000000081526004016107619061107b565b60405180910390fd5b8060048190555050565b60045481565b610782610875565b600073ffffffffffffffffffffffffffffffffffffffff168173ffffffffffffffffffffffffffffffffffffffff16036107f1576040517f08c379a00000000000000000000000000000000000000000000000000000000081526004016107e89061110d565b60405180910390fd5b6107fa816108f3565b50565b60036020528060005260406000206000915054906101000a900460ff1681565b600260015403610862576040517f08c379a000000000000000000000000000000000000000000000000000000000815260040161085990611179565b60405180910390fd5b6002600181905550565b60018081905550565b61087d6109b7565b73ffffffffffffffffffffffffffffffffffffffff1661089b6105fe565b73ffffffffffffffffffffffffffffffffffffffff16146108f1576040517f08c379a00000000000000000000000000000000000000000000000000000000081526004016108e8906111e5565b60405180910390fd5b565b60008060009054906101000a900473ffffffffffffffffffffffffffffffffffffffff169050816000806101000a81548173ffffffffffffffffffffffffffffffffffffffff021916908373ffffffffffffffffffffffffffffffffffffffff1602179055508173ffffffffffffffffffffffffffffffffffffffff168173ffffffffffffffffffffffffffffffffffffffff167f8be0079c531659141344cd1fd0a4f28419497f9722a3daafe3b4186f6b6457e060405160405180910390a35050565b600033905090565b600080fd5b600073ffffffffffffffffffffffffffffffffffffffff82169050919050565b60006109ef826109c4565b9050919050565b6109ff816109e4565b8114610a0a57600080fd5b50565b600081359050610a1c816109f6565b92915050565b600060208284031215610a3857610a376109bf565b5b6000610a4684828501610a0d565b91505092915050565b6000819050919050565b610a6281610a4f565b82525050565b6000602082019050610a7d6000830184610a59565b92915050565b6000819050919050565b610a9681610a83565b8114610aa157600080fd5b50565b600081359050610ab381610a8d565b92915050565b600060208284031215610acf57610ace6109bf565b5b6000610add84828501610aa4565b91505092915050565b610aef816109e4565b82525050565b6000602082019050610b0a6000830184610ae6565b92915050565b610b1981610a4f565b8114610b2457600080fd5b50565b600081359050610b3681610b10565b92915050565b60008060408385031215610b5357610b526109bf565b5b6000610b6185828601610aa4565b9250506020610b7285828601610b27565b9150509250929050565b600060208284031215610b9257610b916109bf565b5b6000610ba084828501610b27565b91505092915050565b60008115159050919050565b610bbe81610ba9565b82525050565b6000602082019050610bd96000830184610bb5565b92915050565b600082825260208201905092915050565b7f496e73756666696369656e74207061796d656e74000000000000000000000000600082015250565b6000610c26601483610bdf565b9150610c3182610bf0565b602082019050919050565b60006020820190508181036000830152610c5581610c19565b9050919050565b7f496e76616c69642070756d702049440000000000000000000000000000000000600082015250565b6000610c92600f83610bdf565b9150610c9d82610c5c565b602082019050919050565b60006020820190508181036000830152610cc181610c85565b9050919050565b7f4e487b7100000000000000000000000000000000000000000000000000000000600052601260045260246000fd5b7f4e487b7100000000000000000000000000000000000000000000000000000000600052601160045260246000fd5b6000610d3182610a4f565b9150610d3c83610a4f565b925082610d4c57610d4b610cc8565b5b828204905092915050565b6000610d6282610a4f565b9150610d6d83610a4f565b9250828202610d7b81610a4f565b91508282048414831517610d9257610d91610cf7565b5b5092915050565b6000610da482610a4f565b9150610daf83610a4f565b9250828203905081811115610dc757610dc6610cf7565b5b92915050565b6000610dd882610a4f565b9150610de383610a4f565b9250828201905080821115610dfb57610dfa610cf7565b5b92915050565b610e0a81610a83565b82525050565b6000604082019050610e256000830185610a59565b610e326020830184610e01565b9392505050565b600081905092915050565b50565b6000610e54600083610e39565b9150610e5f82610e44565b600082019050919050565b6000610e7582610e47565b9150819050919050565b7f526566756e64206661696c656400000000000000000000000000000000000000600082015250565b6000610eb5600d83610bdf565b9150610ec082610e7f565b602082019050919050565b60006020820190508181036000830152610ee481610ea8565b9050919050565b7f4e6f2066756e647320746f207769746864726177000000000000000000000000600082015250565b6000610f21601483610bdf565b9150610f2c82610eeb565b602082019050919050565b60006020820190508181036000830152610f5081610f14565b9050919050565b7f5769746864726177616c206661696c6564000000000000000000000000000000600082015250565b6000610f8d601183610bdf565b9150610f9882610f57565b602082019050919050565b60006020820190508181036000830152610fbc81610f80565b9050919050565b7f4c6974657273206d7573742062652067726561746572207468616e2030000000600082015250565b6000610ff9601d83610bdf565b915061100482610fc3565b602082019050919050565b6000602082019050818103600083015261102881610fec565b9050919050565b7f5072696365206d7573742062652067726561746572207468616e203000000000600082015250565b6000611065601c83610bdf565b91506110708261102f565b602082019050919050565b6000602082019050818103600083015261109481611058565b9050919050565b7f4f776e61626c653a206e6577206f776e657220697320746865207a65726f206160008201527f6464726573730000000000000000000000000000000000000000000000000000602082015250565b60006110f7602683610bdf565b91506111028261109b565b604082019050919050565b60006020820190508181036000830152611126816110ea565b9050919050565b7f5265656e7472616e637947756172643a207265656e7472616e742063616c6c00600082015250565b6000611163601f83610bdf565b915061116e8261112d565b602082019050919050565b6000602082019050818103600083015261119281611156565b9050919050565b7f4f776e61626c653a2063616c6c6572206973206e6f7420746865206f776e6572600082015250565b60006111cf602083610bdf565b91506111da82611199565b602082019050919050565b600060208201905081810360008301526111fe816111c2565b905091905056fea264697066735822122045cd06d3a0b471f1738219496162af671215003a90d2c20a683f3f23c47096e864736f6c63430008130033","opcodes":"PUSH1 0x80 PUSH1 0x40 MSTORE PUSH7 0x38D7EA4C68000 PUSH1 0x4 SSTORE CALLVALUE DUP1 ISZERO PUSH2 0x1B JUMPI PUSH1 0x0 DUP1 REVERT JUMPDEST POP PUSH2 0x38 PUSH2 0x2D PUSH2 0x44 PUSH1 0x20 SHL PUSH1 0x20 SHR JUMP JUMPDEST PUSH2 0x4C PUSH1 0x20 SHL PUSH1 0x20 SHR JUMP JUMPDEST PUSH1 0x1 DUP1 DUP2 SWAP1 SSTORE POP PUSH2 0x110 JUMP JUMPDEST PUSH1 0x0 CALLER SWAP1 POP SWAP1 JUMP JUMPDEST PUSH1 0x0 DUP1 PUSH1 0x0 SWAP1 SLOAD SWAP1 PUSH2 0x100 EXP SWAP1 DIV PUSH20 0xFFFFFFFFFFFFFFFFFFFFFFFFFFFFFFFFFFFFFFFF AND SWAP1 POP DUP2 PUSH1 0x0 DUP1 PUSH2 0x100 EXP DUP2 SLOAD DUP2 PUSH20 0xFFFFFFFFFFFFFFFFFFFFFFFFFFFFFFFFFFFFFFFF MUL NOT AND SWAP1 DUP4 PUSH20 0xFFFFFFFFFFFFFFFFFFFFFFFFFFFFFFFFFFFFFFFF AND MUL OR SWAP1 SSTORE POP DUP2 PUSH20 0xFFFFFFFFFFFFFFFFFFFFFFFFFFFFFFFFFFFFFFFF AND DUP2 PUSH20 0xFFFFFFFFFFFFFFFFFFFFFFFFFFFFFFFFFFFFFFFF AND PUSH32 0x8BE0079C531659141344CD1FD0A4F28419497F9722A3DAAFE3B4186F6B6457E0 PUSH1 0x40 MLOAD PUSH1 0x40 MLOAD DUP1 SWAP2 SUB SWAP1 LOG3 POP POP JUMP JUMPDEST PUSH2 0x123B DUP1 PUSH2 0x11F PUSH1 0x0 CODECOPY PUSH1 0x0 RETURN INVALID PUSH1 0x80 PUSH1 0x40 MSTORE PUSH1 0x4 CALLDATASIZE LT PUSH2 0x91 JUMPI PUSH1 0x0 CALLDATALOAD PUSH1 0xE0 SHR DUP1 PUSH4 0xA3E9D2EC GT PUSH2 0x59 JUMPI DUP1 PUSH4 0xA3E9D2EC EQ PUSH2 0x148 JUMPI DUP1 PUSH4 0xAD17A0B3 EQ PUSH2 0x171 JUMPI DUP1 PUSH4 0xCA6358CD EQ PUSH2 0x19A JUMPI DUP1 PUSH4 0xF2FDE38B EQ PUSH2 0x1C5 JUMPI DUP1 PUSH4 0xFBBEEFC9 EQ PUSH2 0x1EE JUMPI PUSH2 0x91 JUMP JUMPDEST DUP1 PUSH4 0x121596E EQ PUSH2 0x96 JUMPI DUP1 PUSH4 0x35EB0A1E EQ PUSH2 0xD3 JUMPI DUP1 PUSH4 0x3CCFD60B EQ PUSH2 0xEF JUMPI DUP1 PUSH4 0x715018A6 EQ PUSH2 0x106 JUMPI DUP1 PUSH4 0x8DA5CB5B EQ PUSH2 0x11D JUMPI JUMPDEST PUSH1 0x0 DUP1 REVERT JUMPDEST CALLVALUE DUP1 ISZERO PUSH2 0xA2 JUMPI PUSH1 0x0 DUP1 REVERT JUMPDEST POP PUSH2 0xBD PUSH1 0x4 DUP1 CALLDATASIZE SUB DUP2 ADD SWAP1 PUSH2 0xB8 SWAP2 SWAP1 PUSH2 0xA22 JUMP JUMPDEST PUSH2 0x22B JUMP JUMPDEST PUSH1 0x40 MLOAD PUSH2 0xCA SWAP2 SWAP1 PUSH2 0xA68 JUMP JUMPDEST PUSH1 0x40 MLOAD DUP1 SWAP2 SUB SWAP1 RETURN JUMPDEST PUSH2 0xED PUSH1 0x4 DUP1 CALLDATASIZE SUB DUP2 ADD SWAP1 PUSH2 0xE8 SWAP2 SWAP1 PUSH2 0xAB9 JUMP JUMPDEST PUSH2 0x243 JUMP JUMPDEST STOP JUMPDEST CALLVALUE DUP1 ISZERO PUSH2 0xFB JUMPI PUSH1 0x0 DUP1 REVERT JUMPDEST POP PUSH2 0x104 PUSH2 0x479 JUMP JUMPDEST STOP JUMPDEST CALLVALUE DUP1 ISZERO PUSH2 0x112 JUMPI PUSH1 0x0 DUP1 REVERT JUMPDEST POP PUSH2 0x11B PUSH2 0x5EA JUMP JUMPDEST STOP JUMPDEST CALLVALUE DUP1 ISZERO PUSH2 0x129 JUMPI PUSH1 0x0 DUP1 REVERT JUMPDEST POP PUSH2 0x132 PUSH2 0x5FE JUMP JUMPDEST PUSH1 0x40 MLOAD PUSH2 0x13F SWAP2 SWAP1 PUSH2 0xAF5 JUMP JUMPDEST PUSH1 0x40 MLOAD DUP1 SWAP2 SUB SWAP1 RETURN JUMPDEST CALLVALUE DUP1 ISZERO PUSH2 0x154 JUMPI PUSH1 0x0 DUP1 REVERT JUMPDEST POP PUSH2 0x16F PUSH1 0x4 DUP1 CALLDATASIZE SUB DUP2 ADD SWAP1 PUSH2 0x16A SWAP2 SWAP1 PUSH2 0xB3C JUMP JUMPDEST PUSH2 0x627 JUMP JUMPDEST STOP JUMPDEST CALLVALUE DUP1 ISZERO PUSH2 0x17D JUMPI PUSH1 0x0 DUP1 REVERT JUMPDEST POP PUSH2 0x198 PUSH1 0x4 DUP1 CALLDATASIZE SUB DUP2 ADD SWAP1 PUSH2 0x193 SWAP2 SWAP1 PUSH2 0xB7C JUMP JUMPDEST PUSH2 0x71F JUMP JUMPDEST STOP JUMPDEST CALLVALUE DUP1 ISZERO PUSH2 0x1A6 JUMPI PUSH1 0x0 DUP1 REVERT JUMPDEST POP PUSH2 0x1AF PUSH2 0x774 JUMP JUMPDEST PUSH1 0x40 MLOAD PUSH2 0x1BC SWAP2 SWAP1 PUSH2 0xA68 JUMP JUMPDEST PUSH1 0x40 MLOAD DUP1 SWAP2 SUB SWAP1 RETURN JUMPDEST CALLVALUE DUP1 ISZERO PUSH2 0x1D1 JUMPI PUSH1 0x0 DUP1 REVERT JUMPDEST POP PUSH2 0x1EC PUSH1 0x4 DUP1 CALLDATASIZE SUB DUP2 ADD SWAP1 PUSH2 0x1E7 SWAP2 SWAP1 PUSH2 0xA22 JUMP JUMPDEST PUSH2 0x77A JUMP JUMPDEST STOP JUMPDEST CALLVALUE DUP1 ISZERO PUSH2 0x1FA JUMPI PUSH1 0x0 DUP1 REVERT JUMPDEST POP PUSH2 0x215 PUSH1 0x4 DUP1 CALLDATASIZE SUB DUP2 ADD SWAP1 PUSH2 0x210 SWAP2 SWAP1 PUSH2 0xAB9 JUMP JUMPDEST PUSH2 0x7FD JUMP JUMPDEST PUSH1 0x40 MLOAD PUSH2 0x222 SWAP2 SWAP1 PUSH2 0xBC4 JUMP JUMPDEST PUSH1 0x40 MLOAD DUP1 SWAP2 SUB SWAP1 RETURN JUMPDEST PUSH1 0x2 PUSH1 0x20 MSTORE DUP1 PUSH1 0x0 MSTORE PUSH1 0x40 PUSH1 0x0 KECCAK256 PUSH1 0x0 SWAP2 POP SWAP1 POP SLOAD DUP2 JUMP JUMPDEST PUSH2 0x24B PUSH2 0x81D JUMP JUMPDEST PUSH1 0x4 SLOAD CALLVALUE LT ISZERO PUSH2 0x290 JUMPI PUSH1 0x40 MLOAD PUSH32 0x8C379A000000000000000000000000000000000000000000000000000000000 DUP2 MSTORE PUSH1 0x4 ADD PUSH2 0x287 SWAP1 PUSH2 0xC3C JUMP JUMPDEST PUSH1 0x40 MLOAD DUP1 SWAP2 SUB SWAP1 REVERT JUMPDEST PUSH1 0x0 DUP1 SHL DUP2 SUB PUSH2 0x2D5 JUMPI PUSH1 0x40 MLOAD PUSH32 0x8C379A000000000000000000000000000000000000000000000000000000000 DUP2 MSTORE PUSH1 0x4 ADD PUSH2 0x2CC SWAP1 PUSH2 0xCA8 JUMP JUMPDEST PUSH1 0x40 MLOAD DUP1 SWAP2 SUB SWAP1 REVERT JUMPDEST PUSH1 0x0 PUSH1 0x4 SLOAD CALLVALUE PUSH2 0x2E5 SWAP2 SWAP1 PUSH2 0xD26 JUMP JUMPDEST SWAP1 POP PUSH1 0x0 PUSH1 0x4 SLOAD DUP3 PUSH2 0x2F7 SWAP2 SWAP1 PUSH2 0xD57 JUMP JUMPDEST SWAP1 POP PUSH1 0x0 DUP2 CALLVALUE PUSH2 0x307 SWAP2 SWAP1 PUSH2 0xD99 JUMP JUMPDEST SWAP1 POP DUP3 PUSH1 0x2 PUSH1 0x0 CALLER PUSH20 0xFFFFFFFFFFFFFFFFFFFFFFFFFFFFFFFFFFFFFFFF AND PUSH20 0xFFFFFFFFFFFFFFFFFFFFFFFFFFFFFFFFFFFFFFFF AND DUP2 MSTORE PUSH1 0x20 ADD SWAP1 DUP2 MSTORE PUSH1 0x20 ADD PUSH1 0x0 KECCAK256 PUSH1 0x0 DUP3 DUP3 SLOAD PUSH2 0x358 SWAP2 SWAP1 PUSH2 0xDCD JUMP JUMPDEST SWAP3 POP POP DUP2 SWAP1 SSTORE POP CALLER PUSH20 0xFFFFFFFFFFFFFFFFFFFFFFFFFFFFFFFFFFFFFFFF AND PUSH32 0x67C714528D39C0FA382D65C67187FE65995376245468856E215C0410BEE2EC25 DUP5 DUP7 PUSH1 0x40 MLOAD PUSH2 0x3A7 SWAP3 SWAP2 SWAP1 PUSH2 0xE10 JUMP JUMPDEST PUSH1 0x40 MLOAD DUP1 SWAP2 SUB SWAP1 LOG2 PUSH1 0x0 DUP2 GT ISZERO PUSH2 0x46B JUMPI PUSH1 0x0 CALLER PUSH20 0xFFFFFFFFFFFFFFFFFFFFFFFFFFFFFFFFFFFFFFFF AND DUP3 PUSH2 0x8FC SWAP1 PUSH1 0x40 MLOAD PUSH2 0x3E2 SWAP1 PUSH2 0xE6A JUMP JUMPDEST PUSH1 0x0 PUSH1 0x40 MLOAD DUP1 DUP4 SUB DUP2 DUP6 DUP9 DUP9 CALL SWAP4 POP POP POP POP RETURNDATASIZE DUP1 PUSH1 0x0 DUP2 EQ PUSH2 0x420 JUMPI PUSH1 0x40 MLOAD SWAP2 POP PUSH1 0x1F NOT PUSH1 0x3F RETURNDATASIZE ADD AND DUP3 ADD PUSH1 0x40 MSTORE RETURNDATASIZE DUP3 MSTORE RETURNDATASIZE PUSH1 0x0 PUSH1 0x20 DUP5 ADD RETURNDATACOPY PUSH2 0x425 JUMP JUMPDEST PUSH1 0x60 SWAP2 POP JUMPDEST POP POP SWAP1 POP DUP1 PUSH2 0x469 JUMPI PUSH1 0x40 MLOAD PUSH32 0x8C379A000000000000000000000000000000000000000000000000000000000 DUP2 MSTORE PUSH1 0x4 ADD PUSH2 0x460 SWAP1 PUSH2 0xECB JUMP JUMPDEST PUSH1 0x40 MLOAD DUP1 SWAP2 SUB SWAP1 REVERT JUMPDEST POP JUMPDEST POP POP POP PUSH2 0x476 PUSH2 0x86C JUMP JUMPDEST POP JUMP JUMPDEST PUSH2 0x481 PUSH2 0x875 JUMP JUMPDEST PUSH2 0x489 PUSH2 0x81D JUMP JUMPDEST PUSH1 0x0 SELFBALANCE SWAP1 POP PUSH1 0x0 DUP2 GT PUSH2 0x4D1 JUMPI PUSH1 0x40 MLOAD PUSH32 0x8C379A000000000000000000000000000000000000000000000000000000000 DUP2 MSTORE PUSH1 0x4 ADD PUSH2 0x4C8 SWAP1 PUSH2 0xF37 JUMP JUMPDEST PUSH1 0x40 MLOAD DUP1 SWAP2 SUB SWAP1 REVERT JUMPDEST PUSH1 0x0 PUSH2 0x4DB PUSH2 0x5FE JUMP JUMPDEST PUSH20 0xFFFFFFFFFFFFFFFFFFFFFFFFFFFFFFFFFFFFFFFF AND DUP3 PUSH2 0x8FC SWAP1 PUSH1 0x40 MLOAD PUSH2 0x502 SWAP1 PUSH2 0xE6A JUMP JUMPDEST PUSH1 0x0 PUSH1 0x40 MLOAD DUP1 DUP4 SUB DUP2 DUP6 DUP9 DUP9 CALL SWAP4 POP POP POP POP RETURNDATASIZE DUP1 PUSH1 0x0 DUP2 EQ PUSH2 0x540 JUMPI PUSH1 0x40 MLOAD SWAP2 POP PUSH1 0x1F NOT PUSH1 0x3F RETURNDATASIZE ADD AND DUP3 ADD PUSH1 0x40 MSTORE RETURNDATASIZE DUP3 MSTORE RETURNDATASIZE PUSH1 0x0 PUSH1 0x20 DUP5 ADD RETURNDATACOPY PUSH2 0x545 JUMP JUMPDEST PUSH1 0x60 SWAP2 POP JUMPDEST POP POP SWAP1 POP DUP1 PUSH2 0x589 JUMPI PUSH1 0x40 MLOAD PUSH32 0x8C379A000000000000000000000000000000000000000000000000000000000 DUP2 MSTORE PUSH1 0x4 ADD PUSH2 0x580 SWAP1 PUSH2 0xFA3 JUMP JUMPDEST PUSH1 0x40 MLOAD DUP1 SWAP2 SUB SWAP1 REVERT JUMPDEST PUSH2 0x591 PUSH2 0x5FE JUMP JUMPDEST PUSH20 0xFFFFFFFFFFFFFFFFFFFFFFFFFFFFFFFFFFFFFFFF AND PUSH32 0x7FCF532C15F0A6DB0BD6D0E038BEA71D30D808C7D98CB3BF7268A95BF5081B65 DUP4 PUSH1 0x40 MLOAD PUSH2 0x5D6 SWAP2 SWAP1 PUSH2 0xA68 JUMP JUMPDEST PUSH1 0x40 MLOAD DUP1 SWAP2 SUB SWAP1 LOG2 POP POP PUSH2 0x5E8 PUSH2 0x86C JUMP JUMPDEST JUMP JUMPDEST PUSH2 0x5F2 PUSH2 0x875 JUMP JUMPDEST PUSH2 0x5FC PUSH1 0x0 PUSH2 0x8F3 JUMP JUMPDEST JUMP JUMPDEST PUSH1 0x0 DUP1 PUSH1 0x0 SWAP1 SLOAD SWAP1 PUSH2 0x100 EXP SWAP1 DIV PUSH20 0xFFFFFFFFFFFFFFFFFFFFFFFFFFFFFFFFFFFFFFFF AND SWAP1 POP SWAP1 JUMP JUMPDEST PUSH2 0x62F PUSH2 0x875 JUMP JUMPDEST PUSH1 0x0 DUP1 SHL DUP3 SUB PUSH2 0x674 JUMPI PUSH1 0x40 MLOAD PUSH32 0x8C379A000000000000000000000000000000000000000000000000000000000 DUP2 MSTORE PUSH1 0x4 ADD PUSH2 0x66B SWAP1 PUSH2 0xCA8 JUMP JUMPDEST PUSH1 0x40 MLOAD DUP1 SWAP2 SUB SWAP1 REVERT JUMPDEST PUSH1 0x0 DUP2 GT PUSH2 0x6B7 JUMPI PUSH1 0x40 MLOAD PUSH32 0x8C379A000000000000000000000000000000000000000000000000000000000 DUP2 MSTORE PUSH1 0x4 ADD PUSH2 0x6AE SWAP1 PUSH2 0x100F JUMP JUMPDEST PUSH1 0x40 MLOAD DUP1 SWAP2 SUB SWAP1 REVERT JUMPDEST PUSH1 0x1 PUSH1 0x3 PUSH1 0x0 DUP5 DUP2 MSTORE PUSH1 0x20 ADD SWAP1 DUP2 MSTORE PUSH1 0x20 ADD PUSH1 0x0 KECCAK256 PUSH1 0x0 PUSH2 0x100 EXP DUP2 SLOAD DUP2 PUSH1 0xFF MUL NOT AND SWAP1 DUP4 ISZERO ISZERO MUL OR SWAP1 SSTORE POP DUP2 PUSH32 0xA32A3B55358CF1207D18132C3A7E2B40E61A33C5DF83750C3B0CA61C6A403871 DUP3 PUSH1 0x40 MLOAD PUSH2 0x713 SWAP2 SWAP1 PUSH2 0xA68 JUMP JUMPDEST PUSH1 0x40 MLOAD DUP1 SWAP2 SUB SWAP1 LOG2 POP POP JUMP JUMPDEST PUSH2 0x727 PUSH2 0x875 JUMP JUMPDEST PUSH1 0x0 DUP2 GT PUSH2 0x76A JUMPI PUSH1 0x40 MLOAD PUSH32 0x8C379A000000000000000000000000000000000000000000000000000000000 DUP2 MSTORE PUSH1 0x4 ADD PUSH2 0x761 SWAP1 PUSH2 0x107B JUMP JUMPDEST PUSH1 0x40 MLOAD DUP1 SWAP2 SUB SWAP1 REVERT JUMPDEST DUP1 PUSH1 0x4 DUP2 SWAP1 SSTORE POP POP JUMP JUMPDEST PUSH1 0x4 SLOAD DUP2 JUMP JUMPDEST PUSH2 0x782 PUSH2 0x875 JUMP JUMPDEST PUSH1 0x0 PUSH20 0xFFFFFFFFFFFFFFFFFFFFFFFFFFFFFFFFFFFFFFFF AND DUP2 PUSH20 0xFFFFFFFFFFFFFFFFFFFFFFFFFFFFFFFFFFFFFFFF AND SUB PUSH2 0x7F1 JUMPI PUSH1 0x40 MLOAD PUSH32 0x8C379A000000000000000000000000000000000000000000000000000000000 DUP2 MSTORE PUSH1 0x4 ADD PUSH2 0x7E8 SWAP1 PUSH2 0x110D JUMP JUMPDEST PUSH1 0x40 MLOAD DUP1 SWAP2 SUB SWAP1 REVERT JUMPDEST PUSH2 0x7FA DUP2 PUSH2 0x8F3 JUMP JUMPDEST POP JUMP JUMPDEST PUSH1 0x3 PUSH1 0x20 MSTORE DUP1 PUSH1 0x0 MSTORE PUSH1 0x40 PUSH1 0x0 KECCAK256 PUSH1 0x0 SWAP2 POP SLOAD SWAP1 PUSH2 0x100 EXP SWAP1 DIV PUSH1 0xFF AND DUP2 JUMP JUMPDEST PUSH1 0x2 PUSH1 0x1 SLOAD SUB PUSH2 0x862 JUMPI PUSH1 0x40 MLOAD PUSH32 0x8C379A000000000000000000000000000000000000000000000000000000000 DUP2 MSTORE PUSH1 0x4 ADD PUSH2 0x859 SWAP1 PUSH2 0x1179 JUMP JUMPDEST PUSH1 0x40 MLOAD DUP1 SWAP2 SUB SWAP1 REVERT JUMPDEST PUSH1 0x2 PUSH1 0x1 DUP2 SWAP1 SSTORE POP JUMP JUMPDEST PUSH1 0x1 DUP1 DUP2 SWAP1 SSTORE POP JUMP JUMPDEST PUSH2 0x87D PUSH2 0x9B7 JUMP JUMPDEST PUSH20 0xFFFFFFFFFFFFFFFFFFFFFFFFFFFFFFFFFFFFFFFF AND PUSH2 0x89B PUSH2 0x5FE JUMP JUMPDEST PUSH20 0xFFFFFFFFFFFFFFFFFFFFFFFFFFFFFFFFFFFFFFFF AND EQ PUSH2 0x8F1 JUMPI PUSH1 0x40 MLOAD PUSH32 0x8C379A000000000000000000000000000000000000000000000000000000000 DUP2 MSTORE PUSH1 0x4 ADD PUSH2 0x8E8 SWAP1 PUSH2 0x11E5 JUMP JUMPDEST PUSH1 0x40 MLOAD DUP1 SWAP2 SUB SWAP1 REVERT JUMPDEST JUMP JUMPDEST PUSH1 0x0 DUP1 PUSH1 0x0 SWAP1 SLOAD SWAP1 PUSH2 0x100 EXP SWAP1 DIV PUSH20 0xFFFFFFFFFFFFFFFFFFFFFFFFFFFFFFFFFFFFFFFF AND SWAP1 POP DUP2 PUSH1 0x0 DUP1 PUSH2 0x100 EXP DUP2 SLOAD DUP2 PUSH20 0xFFFFFFFFFFFFFFFFFFFFFFFFFFFFFFFFFFFFFFFF MUL NOT AND SWAP1 DUP4 PUSH20 0xFFFFFFFFFFFFFFFFFFFFFFFFFFFFFFFFFFFFFFFF AND MUL OR SWAP1 SSTORE POP DUP2 PUSH20 0xFFFFFFFFFFFFFFFFFFFFFFFFFFFFFFFFFFFFFFFF AND DUP2 PUSH20 0xFFFFFFFFFFFFFFFFFFFFFFFFFFFFFFFFFFFFFFFF AND PUSH32 0x8BE0079C531659141344CD1FD0A4F28419497F9722A3DAAFE3B4186F6B6457E0 PUSH1 0x40 MLOAD PUSH1 0x40 MLOAD DUP1 SWAP2 SUB SWAP1 LOG3 POP POP JUMP JUMPDEST PUSH1 0x0 CALLER SWAP1 POP SWAP1 JUMP JUMPDEST PUSH1 0x0 DUP1 REVERT JUMPDEST PUSH1 0x0 PUSH20 0xFFFFFFFFFFFFFFFFFFFFFFFFFFFFFFFFFFFFFFFF DUP3 AND SWAP1 POP SWAP2 SWAP1 POP JUMP JUMPDEST PUSH1 0x0 PUSH2 0x9EF DUP3 PUSH2 0x9C4 JUMP JUMPDEST SWAP1 POP SWAP2 SWAP1 POP JUMP JUMPDEST PUSH2 0x9FF DUP2 PUSH2 0x9E4 JUMP JUMPDEST DUP2 EQ PUSH2 0xA0A JUMPI PUSH1 0x0 DUP1 REVERT JUMPDEST POP JUMP JUMPDEST PUSH1 0x0 DUP2 CALLDATALOAD SWAP1 POP PUSH2 0xA1C DUP2 PUSH2 0x9F6 JUMP JUMPDEST SWAP3 SWAP2 POP POP JUMP JUMPDEST PUSH1 0x0 PUSH1 0x20 DUP3 DUP5 SUB SLT ISZERO PUSH2 0xA38 JUMPI PUSH2 0xA37 PUSH2 0x9BF JUMP JUMPDEST JUMPDEST PUSH1 0x0 PUSH2 0xA46 DUP5 DUP3 DUP6 ADD PUSH2 0xA0D JUMP JUMPDEST SWAP2 POP POP SWAP3 SWAP2 POP POP JUMP JUMPDEST PUSH1 0x0 DUP2 SWAP1 POP SWAP2 SWAP1 POP JUMP JUMPDEST PUSH2 0xA62 DUP2 PUSH2 0xA4F JUMP JUMPDEST DUP3 MSTORE POP POP JUMP JUMPDEST PUSH1 0x0 PUSH1 0x20 DUP3 ADD SWAP1 POP PUSH2 0xA7D PUSH1 0x0 DUP4 ADD DUP5 PUSH2 0xA59 JUMP JUMPDEST SWAP3 SWAP2 POP POP JUMP JUMPDEST PUSH1 0x0 DUP2 SWAP1 POP SWAP2 SWAP1 POP JUMP JUMPDEST PUSH2 0xA96 DUP2 PUSH2 0xA83 JUMP JUMPDEST DUP2 EQ PUSH2 0xAA1 JUMPI PUSH1 0x0 DUP1 REVERT JUMPDEST POP JUMP JUMPDEST PUSH1 0x0 DUP2 CALLDATALOAD SWAP1 POP PUSH2 0xAB3 DUP2 PUSH2 0xA8D JUMP JUMPDEST SWAP3 SWAP2 POP POP JUMP JUMPDEST PUSH1 0x0 PUSH1 0x20 DUP3 DUP5 SUB SLT ISZERO PUSH2 0xACF JUMPI PUSH2 0xACE PUSH2 0x9BF JUMP JUMPDEST JUMPDEST PUSH1 0x0 PUSH2 0xADD DUP5 DUP3 DUP6 ADD PUSH2 0xAA4 JUMP JUMPDEST SWAP2 POP POP SWAP3 SWAP2 POP POP JUMP JUMPDEST PUSH2 0xAEF DUP2 PUSH2 0x9E4 JUMP JUMPDEST DUP3 MSTORE POP POP JUMP JUMPDEST PUSH1 0x0 PUSH1 0x20 DUP3 ADD SWAP1 POP PUSH2 0xB0A PUSH1 0x0 DUP4 ADD DUP5 PUSH2 0xAE6 JUMP JUMPDEST SWAP3 SWAP2 POP POP JUMP JUMPDEST PUSH2 0xB19 DUP2 PUSH2 0xA4F JUMP JUMPDEST DUP2 EQ PUSH2 0xB24 JUMPI PUSH1 0x0 DUP1 REVERT JUMPDEST POP JUMP JUMPDEST PUSH1 0x0 DUP2 CALLDATALOAD SWAP1 POP PUSH2 0xB36 DUP2 PUSH2 0xB10 JUMP JUMPDEST SWAP3 SWAP2 POP POP JUMP JUMPDEST PUSH1 0x0 DUP1 PUSH1 0x40 DUP4 DUP6 SUB SLT ISZERO PUSH2 0xB53 JUMPI PUSH2 0xB52 PUSH2 0x9BF JUMP JUMPDEST JUMPDEST PUSH1 0x0 PUSH2 0xB61 DUP6 DUP3 DUP7 ADD PUSH2 0xAA4 JUMP JUMPDEST SWAP3 POP POP PUSH1 0x20 PUSH2 0xB72 DUP6 DUP3 DUP7 ADD PUSH2 0xB27 JUMP JUMPDEST SWAP2 POP POP SWAP3 POP SWAP3 SWAP1 POP JUMP JUMPDEST PUSH1 0x0 PUSH1 0x20 DUP3 DUP5 SUB SLT ISZERO PUSH2 0xB92 JUMPI PUSH2 0xB91 PUSH2 0x9BF JUMP JUMPDEST JUMPDEST PUSH1 0x0 PUSH2 0xBA0 DUP5 DUP3 DUP6 ADD PUSH2 0xB27 JUMP JUMPDEST SWAP2 POP POP SWAP3 SWAP2 POP POP JUMP JUMPDEST PUSH1 0x0 DUP2 ISZERO ISZERO SWAP1 POP SWAP2 SWAP1 POP JUMP JUMPDEST PUSH2 0xBBE DUP2 PUSH2 0xBA9 JUMP JUMPDEST DUP3 MSTORE POP POP JUMP JUMPDEST PUSH1 0x0 PUSH1 0x20 DUP3 ADD SWAP1 POP PUSH2 0xBD9 PUSH1 0x0 DUP4 ADD DUP5 PUSH2 0xBB5 JUMP JUMPDEST SWAP3 SWAP2 POP POP JUMP JUMPDEST PUSH1 0x0 DUP3 DUP3 MSTORE PUSH1 0x20 DUP3 ADD SWAP1 POP SWAP3 SWAP2 POP POP JUMP JUMPDEST PUSH32 0x496E73756666696369656E74207061796D656E74000000000000000000000000 PUSH1 0x0 DUP3 ADD MSTORE POP JUMP JUMPDEST PUSH1 0x0 PUSH2 0xC26 PUSH1 0x14 DUP4 PUSH2 0xBDF JUMP JUMPDEST SWAP2 POP PUSH2 0xC31 DUP3 PUSH2 0xBF0 JUMP JUMPDEST PUSH1 0x20 DUP3 ADD SWAP1 POP SWAP2 SWAP1 POP JUMP JUMPDEST PUSH1 0x0 PUSH1 0x20 DUP3 ADD SWAP1 POP DUP2 DUP2 SUB PUSH1 0x0 DUP4 ADD MSTORE PUSH2 0xC55 DUP2 PUSH2 0xC19 JUMP JUMPDEST SWAP1 POP SWAP2 SWAP1 POP JUMP JUMPDEST PUSH32 0x496E76616C69642070756D702049440000000000000000000000000000000000 PUSH1 0x0 DUP3 ADD MSTORE POP JUMP JUMPDEST PUSH1 0x0 PUSH2 0xC92 PUSH1 0xF DUP4 PUSH2 0xBDF JUMP JUMPDEST SWAP2 POP PUSH2 0xC9D DUP3 PUSH2 0xC5C JUMP JUMPDEST PUSH1 0x20 DUP3 ADD SWAP1 POP SWAP2 SWAP1 POP JUMP JUMPDEST PUSH1 0x0 PUSH1 0x20 DUP3 ADD SWAP1 POP DUP2 DUP2 SUB PUSH1 0x0 DUP4 ADD MSTORE PUSH2 0xCC1 DUP2 PUSH2 0xC85 JUMP JUMPDEST SWAP1 POP SWAP2 SWAP1 POP JUMP JUMPDEST PUSH32 0x4E487B7100000000000000000000000000000000000000000000000000000000 PUSH1 0x0 MSTORE PUSH1 0x12 PUSH1 0x4 MSTORE PUSH1 0x24 PUSH1 0x0 REVERT JUMPDEST PUSH32 0x4E487B7100000000000000000000000000000000000000000000000000000000 PUSH1 0x0 MSTORE PUSH1 0x11 PUSH1 0x4 MSTORE PUSH1 0x24 PUSH1 0x0 REVERT JUMPDEST PUSH1 0x0 PUSH2 0xD31 DUP3 PUSH2 0xA4F JUMP JUMPDEST SWAP2 POP PUSH2 0xD3C DUP4 PUSH2 0xA4F JUMP JUMPDEST SWAP3 POP DUP3 PUSH2 0xD4C JUMPI PUSH2 0xD4B PUSH2 0xCC8 JUMP JUMPDEST JUMPDEST DUP3 DUP3 DIV SWAP1 POP SWAP3 SWAP2 POP POP JUMP JUMPDEST PUSH1 0x0 PUSH2 0xD62 DUP3 PUSH2 0xA4F JUMP JUMPDEST SWAP2 POP PUSH2 0xD6D DUP4 PUSH2 0xA4F JUMP JUMPDEST SWAP3 POP DUP3 DUP3 MUL PUSH2 0xD7B DUP2 PUSH2 0xA4F JUMP JUMPDEST SWAP2 POP DUP3 DUP3 DIV DUP5 EQ DUP4 ISZERO OR PUSH2 0xD92 JUMPI PUSH2 0xD91 PUSH2 0xCF7 JUMP JUMPDEST JUMPDEST POP SWAP3 SWAP2 POP POP JUMP JUMPDEST PUSH1 0x0 PUSH2 0xDA4 DUP3 PUSH2 0xA4F JUMP JUMPDEST SWAP2 POP PUSH2 0xDAF DUP4 PUSH2 0xA4F JUMP JUMPDEST SWAP3 POP DUP3 DUP3 SUB SWAP1 POP DUP2 DUP2 GT ISZERO PUSH2 0xDC7 JUMPI PUSH2 0xDC6 PUSH2 0xCF7 JUMP JUMPDEST JUMPDEST SWAP3 SWAP2 POP POP JUMP JUMPDEST PUSH1 0x0 PUSH2 0xDD8 DUP3 PUSH2 0xA4F JUMP JUMPDEST SWAP2 POP PUSH2 0xDE3 DUP4 PUSH2 0xA4F JUMP JUMPDEST SWAP3 POP DUP3 DUP3 ADD SWAP1 POP DUP1 DUP3 GT ISZERO PUSH2 0xDFB JUMPI PUSH2 0xDFA PUSH2 0xCF7 JUMP JUMPDEST JUMPDEST SWAP3 SWAP2 POP POP JUMP JUMPDEST PUSH2 0xE0A DUP2 PUSH2 0xA83 JUMP JUMPDEST DUP3 MSTORE POP POP JUMP JUMPDEST PUSH1 0x0 PUSH1 0x40 DUP3 ADD SWAP1 POP PUSH2 0xE25 PUSH1 0x0 DUP4 ADD DUP6 PUSH2 0xA59 JUMP JUMPDEST PUSH2 0xE32 PUSH1 0x20 DUP4 ADD DUP5 PUSH2 0xE01 JUMP JUMPDEST SWAP4 SWAP3 POP POP POP JUMP JUMPDEST PUSH1 0x0 DUP2 SWAP1 POP SWAP3 SWAP2 POP POP JUMP JUMPDEST POP JUMP JUMPDEST PUSH1 0x0 PUSH2 0xE54 PUSH1 0x0 DUP4 PUSH2 0xE39 JUMP JUMPDEST SWAP2 POP PUSH2 0xE5F DUP3 PUSH2 0xE44 JUMP JUMPDEST PUSH1 0x0 DUP3 ADD SWAP1 POP SWAP2 SWAP1 POP JUMP JUMPDEST PUSH1 0x0 PUSH2 0xE75 DUP3 PUSH2 0xE47 JUMP JUMPDEST SWAP2 POP DUP2 SWAP1 POP SWAP2 SWAP1 POP JUMP JUMPDEST PUSH32 0x526566756E64206661696C656400000000000000000000000000000000000000 PUSH1 0x0 DUP3 ADD MSTORE POP JUMP JUMPDEST PUSH1 0x0 PUSH2 0xEB5 PUSH1 0xD DUP4 PUSH2 0xBDF JUMP JUMPDEST SWAP2 POP PUSH2 0xEC0 DUP3 PUSH2 0xE7F JUMP JUMPDEST PUSH1 0x20 DUP3 ADD SWAP1 POP SWAP2 SWAP1 POP JUMP JUMPDEST PUSH1 0x0 PUSH1 0x20 DUP3 ADD SWAP1 POP DUP2 DUP2 SUB PUSH1 0x0 DUP4 ADD MSTORE PUSH2 0xEE4 DUP2 PUSH2 0xEA8 JUMP JUMPDEST SWAP1 POP SWAP2 SWAP1 POP JUMP JUMPDEST PUSH32 0x4E6F2066756E647320746F207769746864726177000000000000000000000000 PUSH1 0x0 DUP3 ADD MSTORE POP JUMP JUMPDEST PUSH1 0x0 PUSH2 0xF21 PUSH1 0x14 DUP4 PUSH2 0xBDF JUMP JUMPDEST SWAP2 POP PUSH2 0xF2C DUP3 PUSH2 0xEEB JUMP JUMPDEST PUSH1 0x20 DUP3 ADD SWAP1 POP SWAP2 SWAP1 POP JUMP JUMPDEST PUSH1 0x0 PUSH1 0x20 DUP3 ADD SWAP1 POP DUP2 DUP2 SUB PUSH1 0x0 DUP4 ADD MSTORE PUSH2 0xF50 DUP2 PUSH2 0xF14 JUMP JUMPDEST SWAP1 POP SWAP2 SWAP1 POP JUMP JUMPDEST PUSH32 0x5769746864726177616C206661696C6564000000000000000000000000000000 PUSH1 0x0 DUP3 ADD MSTORE POP JUMP JUMPDEST PUSH1 0x0 PUSH2 0xF8D PUSH1 0x11 DUP4 PUSH2 0xBDF JUMP JUMPDEST SWAP2 POP PUSH2 0xF98 DUP3 PUSH2 0xF57 JUMP JUMPDEST PUSH1 0x20 DUP3 ADD SWAP1 POP SWAP2 SWAP1 POP JUMP JUMPDEST PUSH1 0x0 PUSH1 0x20 DUP3 ADD SWAP1 POP DUP2 DUP2 SUB PUSH1 0x0 DUP4 ADD MSTORE PUSH2 0xFBC DUP2 PUSH2 0xF80 JUMP JUMPDEST SWAP1 POP SWAP2 SWAP1 POP JUMP JUMPDEST PUSH32 0x4C6974657273206D7573742062652067726561746572207468616E2030000000 PUSH1 0x0 DUP3 ADD MSTORE POP JUMP JUMPDEST PUSH1 0x0 PUSH2 0xFF9 PUSH1 0x1D DUP4 PUSH2 0xBDF JUMP JUMPDEST SWAP2 POP PUSH2 0x1004 DUP3 PUSH2 0xFC3 JUMP JUMPDEST PUSH1 0x20 DUP3 ADD SWAP1 POP SWAP2 SWAP1 POP JUMP JUMPDEST PUSH1 0x0 PUSH1 0x20 DUP3 ADD SWAP1 POP DUP2 DUP2 SUB PUSH1 0x0 DUP4 ADD MSTORE PUSH2 0x1028 DUP2 PUSH2 0xFEC JUMP JUMPDEST SWAP1 POP SWAP2 SWAP1 POP JUMP JUMPDEST PUSH32 0x5072696365206D7573742062652067726561746572207468616E203000000000 PUSH1 0x0 DUP3 ADD MSTORE POP JUMP JUMPDEST PUSH1 0x0 PUSH2 0x1065 PUSH1 0x1C DUP4 PUSH2 0xBDF JUMP JUMPDEST SWAP2 POP PUSH2 0x1070 DUP3 PUSH2 0x102F JUMP JUMPDEST PUSH1 0x20 DUP3 ADD SWAP1 POP SWAP2 SWAP1 POP JUMP JUMPDEST PUSH1 0x0 PUSH1 0x20 DUP3 ADD SWAP1 POP DUP2 DUP2 SUB PUSH1 0x0 DUP4 ADD MSTORE PUSH2 0x1094 DUP2 PUSH2 0x1058 JUMP JUMPDEST SWAP1 POP SWAP2 SWAP1 POP JUMP JUMPDEST PUSH32 0x4F776E61626C653A206E6577206F776E657220697320746865207A65726F2061 PUSH1 0x0 DUP3 ADD MSTORE PUSH32 0x6464726573730000000000000000000000000000000000000000000000000000 PUSH1 0x20 DUP3 ADD MSTORE POP JUMP JUMPDEST PUSH1 0x0 PUSH2 0x10F7 PUSH1 0x26 DUP4 PUSH2 0xBDF JUMP JUMPDEST SWAP2 POP PUSH2 0x1102 DUP3 PUSH2 0x109B JUMP JUMPDEST PUSH1 0x40 DUP3 ADD SWAP1 POP SWAP2 SWAP1 POP JUMP JUMPDEST PUSH1 0x0 PUSH1 0x20 DUP3 ADD SWAP1 POP DUP2 DUP2 SUB PUSH1 0x0 DUP4 ADD MSTORE PUSH2 0x1126 DUP2 PUSH2 0x10EA JUMP JUMPDEST SWAP1 POP SWAP2 SWAP1 POP JUMP JUMPDEST PUSH32 0x5265656E7472616E637947756172643A207265656E7472616E742063616C6C00 PUSH1 0x0 DUP3 ADD MSTORE POP JUMP JUMPDEST PUSH1 0x0 PUSH2 0x1163 PUSH1 0x1F DUP4 PUSH2 0xBDF JUMP JUMPDEST SWAP2 POP PUSH2 0x116E DUP3 PUSH2 0x112D JUMP JUMPDEST PUSH1 0x20 DUP3 ADD SWAP1 POP SWAP2 SWAP1 POP JUMP JUMPDEST PUSH1 0x0 PUSH1 0x20 DUP3 ADD SWAP1 POP DUP2 DUP2 SUB PUSH1 0x0 DUP4 ADD MSTORE PUSH2 0x1192 DUP2 PUSH2 0x1156 JUMP JUMPDEST SWAP1 POP SWAP2 SWAP1 POP JUMP JUMPDEST PUSH32 0x4F776E61626C653A2063616C6C6572206973206E6F7420746865206F776E6572 PUSH1 0x0 DUP3 ADD MSTORE POP JUMP JUMPDEST PUSH1 0x0 PUSH2 0x11CF PUSH1 0x20 DUP4 PUSH2 0xBDF JUMP JUMPDEST SWAP2 POP PUSH2 0x11DA DUP3 PUSH2 0x1199 JUMP JUMPDEST PUSH1 0x20 DUP3 ADD SWAP1 POP SWAP2 SWAP1 POP JUMP JUMPDEST PUSH1 0x0 PUSH1 0x20 DUP3 ADD SWAP1 POP DUP2 DUP2 SUB PUSH1 0x0 DUP4 ADD MSTORE PUSH2 0x11FE DUP2 PUSH2 0x11C2 JUMP JUMPDEST SWAP1 POP SWAP2 SWAP1 POP JUMP INVALID LOG2 PUSH5 0x6970667358 0x22 SLT KECCAK256 GASLIMIT 0xCD MOD 0xD3 LOG0 0xB4 PUSH18 0xF1738219496162AF671215003A90D2C20A68 EXTCODEHASH EXTCODEHASH 0x23 0xC4 PUSH17 0x96E864736F6C6343000813003300000000 "},"methodIdentifiers":{"activatePump(bytes32,uint256)":"a3e9d2ec","buyWater(bytes32)":"35eb0a1e","creditPrice()":"ca6358cd","owner()":"8da5cb5b","pumpActivations(bytes32)":"fbbeefc9","renounceOwnership()":"715018a6","setCreditPrice(uint256)":"ad17a0b3","transferOwnership(address)":"f2fde38b","waterCredits(address)":"0121596e","withdraw()":"3ccfd60b"}}}}}